PS C:\_devData\cursor\bc1pSendBtc> node main.js
开始创建交易...

=== 交易详情 ===
发送地址 (P2WPKH): bc1qvttwmcjvvhsqlfj9q5tpvqk0z7hev5meqh7zjw
正在获取地址的UTXO: bc1qvttwmcjvvhsqlfj9q5tpvqk0z7hev5meqh7zjw
UTXO 响应数据: [
  {
    "txid": "ec8f57085e124f43b8b139bac1d0a742c6804b33b5faf623049f925a4b77e6e2",
    "vout": 1,
    "status": {
      "confirmed": true,
      "block_height": 892557,
      "block_hash": "000000000000000000016db77a8918f45db442994016dc9ee52277b12f169408",
      "block_time": 1744728318
    },
    "value": 9327
  },
  {
    "txid": "e1b4a7933712e9437dfbe55e73d77514cf6806096b04d57cb6ae2095a10ee137",
    "vout": 2,
    "status": {
      "confirmed": true,
      "block_height": 893255,
      "block_hash": "00000000000000000001fdeb58faf30d7521b51f3174ad64617b57559dee2965",       
      "block_time": 1745157714
    },
    "value": 11541
  }
]
使用配置文件中的费率: 3 sat/vB
当前费率: 3 sat/vB

处理UTXO: ec8f57085e124f43b8b139bac1d0a742c6804b33b5faf623049f925a4b77e6e2
UTXO金额: 9327 satoshis

处理UTXO: e1b4a7933712e9437dfbe55e73d77514cf6806096b04d57cb6ae2095a10ee137
UTXO金额: 11541 satoshis

=== 金额计算 ===
总输入金额: 20868 satoshis

=== 交易费用估算 (P2WPKH) ===
预估交易大小: 249 vBytes
- 输入大小: 136 vBytes (2 个输入)
- 输出大小: 102 vBytes (2 个接收地址 + 1 个找零)
- 基础大小: 10.5 vBytes
费率: 3 sat/vB
预估手续费: 747 satoshis

=== 发送详情 ===
每个地址发送金额: 600 satoshis
接收地址数量: 2
总发送金额: 1200 satoshis
总支出: 1947 satoshis (发送金额 + 手续费)
可用余额: 20868 satoshis
总支出: 1947 satoshis (发送金额 + 手续费)
可用余额: 20868 satoshis
总支出: 1947 satoshis (发送金额 + 手续费)
总支出: 1947 satoshis (发送金额 + 手续费)
可用余额: 20868 satoshis

可用余额: 20868 satoshis

找零金额: 18921 satoshis

找零金额: 18921 satoshis
交易已创建: 02000000000102e2e6774b5a929f0423f6fab5334b80c642a7d0c1ba39b1b8434f125e08578fec0100找零金额: 18921 satoshis
交易已创建: 02000000000102e2e6774b5a929f0423f6fab5334b80c642a7d0c1ba39b1b8434f125e08578fec0100交易已创建: 02000000000102e2e6774b5a929f0423f6fab5334b80c642a7d0c1ba39b1b8434f125e08578fec0100000000ffffffff37e10ea19520aeb67cd5046b090668cf1475d7735ee5fb7d43e9123793a7b4e10200000000ffffffff03580200000000000022512081ffe26c764c88becf8c052f27069ac6122ecd056b077508f85c45660990efc35802000000ffffffff37e10ea19520aeb67cd5046b090668cf1475d7735ee5fb7d43e9123793a7b4e10200000000ffffffff03580200000000000022512081ffe26c764c88becf8c052f27069ac6122ecd056b077508f85c45660990efc35802000000000000225120f72355465a728c236729d0867f63ec579bc93923db2ef89c0e2709bb65741a4ae94900000000000016001462d6ede24c65e00fa64505161602cf17af965379024730440220750d4bc43c434458a41af26e1d166296af03d5e08420f05356431bbe24939d5e02205afd9f4ec3ce377689f5ddb6d54e8db215386d053c22c0150362c746aca71cb7012102b4e6e496b18f74236febf7b5a659cfba585617216bf17e3d3c5245b18244c71b02483045022100dae3000000ffffffff37e10ea19520aeb67cd5046b090668cf1475d7735ee5fb7d43e9123793a7b4e10200000000ffffffff03580200000000000022512081ffe26c764c88becf8c052f27069ac6122ecd056b077508f85c45660990efc35802000000000000225120f72355465a728c236729d0867f63ec579bc93923db2ef89c0e2709bb65741a4ae94900000000000016001462d6ede24c65e00fa64505161602cf17af965379024730440220750d4bc43c434458a41af26e1d166296af03d5e08420f05356431bbe24939d5e02205afd9f4ec3ce377689f5ddb6d54e8db215386d053c22c0150362c746aca71cb7012102b4e6e496b18f74236febf7b5a659cfba585617216bf17e3d3c5245b18244c71b02483045022100dae3000000ffffffff37e10ea19520aeb67cd5046b090668cf1475d7735ee5fb7d43e9123793a7b4e10200000000ffffffff03580200000000000022512081ffe26c764c88becf8c052f27069ac6122ecd056b077508f85c45660990efc35802000000000000225120f72355465a728c236729d0867f63ec579bc93923dbaf03d5e08420f05356431bbe24939d5e02205afd9f4ec3ce377689f5ddb6d54e8db215386d053c22c0150362c746aca71cb7012102b4e6e496b18f74236febf7b5a659cfba585617216bf17e3d3c5245b18244c71b02483045022100dae364ca350dd839172f819b6dc72b56c404b301aff78595fd2c9e7efcc0a509022002b88f263f855608cf89610738fcca9192977ec44bf7aa83387610c06324f6ee012102b4e6e496b18f74236febf7b5a659cfba585617216bf17e3d3c5245b18244c71b00000000
af03d5e08420f05356431bbe24939d5e02205afd9f4ec3ce377689f5ddb6d54e8db215386d053c22c0150362c746aca71cb7012102b4e6e496b18f74236febf7b5a659cfba585617216bf17e3d3c5245b18244c71b02483045022100dae364ca350dd839172f819b6dc72b56c404b301aff78595fd2c9e7efcc0a509022002b88f263f855608cf89610738fcca9192977ec4af03d5e08420f05356431bbe24939d5e02205afd9f4ec3ce377689f5ddb6d54e8db215386d053c22c0150362c746aca71cb7012102b4e6e496b18f74236febf7b5a659cfba58561721af03d5e08420f05356431bbe24939d5e02205afd9f4ec3ce377689f5ddb6d54e8db215386d053c22c0150362c746aca71cb7012102b4e6e496b18f74af03d5e08420f05356431bbaf03d5e08420f05356431bbe24939d5e02205afd9f4ec3ce377689f5ddb6d54e8db215386d053c22c0150362c746aca71cb7012102b4e6e496b18f74236febf7b5af03d5e08420f05356431bbe24939d5e02205afd9f4ec3ce377689f5ddb6d54e8db215386d053c2af03d5e08420f05356431bbe24939d5e02205afd9f4ec3ce377689f5ddb6d54e8db215386d053c22c0150362c746aca71cb7012102b4e6e496b18f74236febf7b5a659af03d5e08420f05356431bbe24939d5e02205afd9f4ec3ce377689f5ddb6d54e8db215386d053c22c0150362c746aca71cb7012102b4e674236febf7b5a659cfba585617216bf17e3d3c5245b18244c71b02483045022100dae364ca350dd839172f819b6dc72b56c404b301aff78595fd2c9e7efcc0a509022002b88f263f855608cf89610738fcca9192977ec44bf7aa83387610c06324f6ee012102b4e6e496b18f74236febf7b5a659cfba585617216bf17e3d3c5245b18244c71b00000000      
正在广播交易...
交易广播成功: f8125de1e08da6b33b3f3f1cb70cdc0f2513bf6c2c1bb51443c0ed8ca5d933b2
PS C:\_devData\cursor\bc1pSendBtc>